:10000300022B0064022100FF0223009C0225000151
:100A180043891085228D85248BD2ABD2AFD28E220A
:100808007FF47E011209701207341208C012092BF6
:100818007F967E001209707F3B1208E4E4FB7D108E
:1008280012094E7F3D1208E4E4FB7D3812094E7F21
:100838003F1208E4E4FB7D6012094E7F431208E48E
:100848007B027D1012094E7F451208E47B027D3839
:1008580012094E7F471208E47B027D6012094E7F21
:08086800F47E0112097080AF5B
:1003D100E4F529F52AAC2BAD2C7E277F10120346BC
:1003E100AC25AD261203468E278F287FF47E01129D
:1003F10009701207341208C0120A18C200AE27AFE2
:10040100287C007D1412039B8E2D8F2EEF2405F581
:1004110030E43EF52FAE27AF287C007D0312039B0D
:10042100D3E52E9FEE6480F8E52D6480984002C2EA
:1004310000AE27AF287C007D0712039BC3E52E9FEA
:10044100EE6480F8E52D6480985002D200300016E9
:100451007405252EF52EE4352DF52D74052530F581
:1004610030E4352FF52F20001874FB252EF52E745E
:10047100FF352DF52D74FB2530F53074FF352FF543
:100481002FE4FB7D10AF2EAE2D1209CBE4FB7D4096
:10049100AF30AE2F1209CB7FF47E01120970020436
:0104A1001644
:10001E00E4F508F5097FF47E011209701207341217
:10002E0008C012092B7F967E00120970E4F529F59F
:10003E002AAC2BAD2C7E277F10120346AC25AD26A5
:10004E001203468E278F28120A18D200AE27AF2829
:10005E007C007D0212039B8E2D8F2EAE27AF287C47
:10006E00007D1412039B8E2F8F30E4FB7D10AF2E7C
:10007E00AE2D1209CBE4FB7D40AF30AE2F1209CB73
:10008E000509E50970020508AE08FF7C007D051222
:10009E000346ED4C60030201397F471208E47C00F1
:1000AE007D4012039BAB07AA06C3EB94FBEA648068
:1000BE00947F5014E52E940AE52D648094804008B8
:1000CE00E52E152E7002152DD3EB94FDEA64809467
:1000DE007F4015D3E530940FE52F6480948040085F
:1000EE00E53015307002152FAE27AF287C007D034A
:1000FE0012039BD3E52E9FEE6480F8E52D64809865
:10010E004002C200AE27AF287C007D0712039BC3BE
:10011E00E52E9FEE6480F8E52D6480985002D200A3
:10012E00AF03AE027B027D381209CBD3E5099432C0
:10013E00E5089400500302008EE4F508F50930003E
:10014E003EAE27AF28FC7D0312039BC3E52E9FEE28
:10015E006480F8E52D648098500B7405252EF52EDD
:10016E00E4352DF52DC3E5309FEE6480F8E52F6460
:10017E008098500B74052530F530E4352FF52F207F
:10018E000041AE27AF287C007D0712039BD3E52EDE
:10019E009FEE6480F8E52D648098400C74FB252E4C
:1001AE00F52E74FF352DF52DD3E5309FEE6480F8D6
:1001BE00E52F648098400C74FB2530F53074FF35C4
:1001CE002FF52FE4FB7D10AF2EAE2D1209CBE4FBE5
:0C01DE007D40AF30AE2F1209CB02008E26
:0300140002001EC9
:03001B0002079F3A
:10079F00C0E0C0D075D000C00085228D85248B05A8
:1007AF002AE52A70020529D39528E5276480F8E504
:1007BF00296480984006752900752A00C3E52A959B
:1007CF002EE52D6480F8E5296480985006D292C2F8
:1007DF00938004C292C293C3E52A9530E52F6480BB
:1007EF00F8E5296480985006D290C2918004C29097
:0907FF00C291D000D0D0D0E0324C
:10097000E4FDFCC3ED9FEC9E5015E4FBFA0BBB00BD
:0F098000010AEB64794A70F50DBD00010C80E4AB
:01098F002245
:1009E6000000000000000000000000000000000001
:0909F600000000000000000022D6
:1001EA00BFC6000000FF0000CC22009151FE7292AF
:1001FA001210000101FF02020204040400FF0001C0
:10020A000204BCBC000848C8487F4848C8002848BF
:10021A00FF88080800206021120C0C1320404000BF
:10022A007F80410100E010080810E000000F102054
:10023A0020100F0000001010F8000000000020201D
:10024A003F202000007008080808F0000030282429
:10025A002221300000300808088870000018202188
:10026A0021221C000000804030F80000000605240E
:10027A00243F242400F888888808080000192020D0
:10028A0020110E0000E0108888900000000F112055
:10029A0020201F0000180808886818000000003E87
:1002AA00010000000070880808887000001C2221E4
:1002BA0021221C0000F008080810E00000011222A8
:1002CA0022110F00000000000000000000010101DF
:1002DA000101010000000000E0000000000101012E
:0402EA000F010101FE
:0D09900033FE12099DE5342404FFE433FE1C
:10099D00C2B2D2A5C2A6C2A700008F800000D2A706
:0109AD002227
:0C09AE00F582E43583F583E493FF7E00BE
:1009BA00C2B2D2A5D2A6C2A700008F800000D2A7D9
:0109CA00220A
:10073400C2B3E4FF0FBF64FCC2B2D2B37FE27E0057
:1007440012099DE4FF0FBF64FC7FA07E0012099D87
:100754007FC812099D7FA612099D7FA412099D7F5F
:10076400A212099D7FF812099D7F0112099D7F81C4
:1007740012099D7F2312099D7F2512099D7F2F1247
:10078400099DE4FF0FBF64FC7F407E0012099D7F3A
:0A079400AF12099DE4FF0FBF64FCE3
:01079E002238
:1008C000E4FDED24B01209997F107E0012099DE429
:1008D000FF12099DFCE4FFFE1209BA0CBC80F60D64
:0308E000BD08DF71
:0108E30022F2
:060565007B00AD07AC06AF
:10056B008B118A1289138C148D15C3E51464809436
:10057B0080500FC3E49515F515E49514F514743AF2
:10058B008008AB11AA12A913743B120334AE14AF3B
:10059B00157C007D6412039BEF2430FFAB11051318
:1005AB00E51370020512F9AA12EF120334AE14AF61
:1005BB00157C007D6412039B8C148D15AE14AF1546
:1005CB007C007D0A12039BEF2430FFAB110513E572
:1005DB001370020512F9AA12EF120334AE14AF1501
:1005EB007C007D0A12039B8C148D15E5152430FFBE
:1005FB00AB110513E51370020512F9AA12EF0203F2
:01060B0034BA
:04094E008D198B1A5A
:100952007C007D4012039B7A00791B1205657B00A7
:0E0962007A00791B751604AD1AAF1902060C47
:0409CB008D0A8B0BFB
:1009CF007A00790C1205657B007A00790C75160494
:0709DF00AD0BAF0A02060C8C
:0404A2008F318D32D7
:1004A600E532D3940740037F0022E531D3948040A0
:1004B600037F002274B02532F532FF7E0012099DBB
:1004C6001202EE7003020562AF327E0012099DE54C
:1004D60031C4540FF533E531540FF534E5332410A8
:1004E600FFEE120990E4FD1202EEFFED75F022A474
:1004F60024EAF582E43401F583E4936F704E9000AC
:1005060001120307FFED75F022A424EBF582E43413
:1005160001F583E4936F7034FCEC64107010E532DF
:100526002401120999E5332410FFE4120990ED75B0
:10053600F022A424ECF582E43401F583E5822C1242
:1005460009AE0CBC20D374102531F5310DED6432A3
:0E0556007095740229F9E43AFA0204C67F0196
:010564002274
:04060C008D12AC0798
:10061000E512D3940740037F0022ECD3948040037B
:100620007F002274B02512F512FF7E0012099DAFE3
:10063000161516EF606FAF127E0012099DECC454C0
:100640000FF517EC540FF518E5172410FFEE33FEE5
:1006500012099DAF187E0012099DE4FDED6408703B
:1006600015E5122401120999E5172410120999AF12
:10067000187E0012099DC374039516FFE494008F41
:1006800082F58312030775F010A4242EF582E5F09D
:1006900034FFF583E5822D1209AE0DBD10BE74083E
:0706A0002CFC02062F7F0174
:0106A7002230
:0F0A2800D2B5D2B41209E6C2B51209E6C2B422A1
:0C0A5200C2B5D2B41209E6D2B50209E622
:0E0A3700A20192B5D2B41209E6C2B40209E6D9
:0D0A4500D2B41209E6A2B5C2B41209E6222D
:020908008F0E50
:10090A00E4F50FE50E25E0F50E92B5D2B41209E62C
:10091A00C2B41209E6050FE50FC3940840E5020ABE
:01092A004587
:10087000E4F50FD2B5F50EE50F25E0F50FD2B41271
:1008800009E6A2B5E433420FC2B41209E6050EE54B
:080890000EC3940840E1AF0F14
:01089800223D
:1009FF008F0A8D0B120A287FD0120908AF0A12092D
:090A0F0008AF0B120908020A529B
:020899008F0CC2
:10089B00120A287FD0120908AF0C120908120A2875
:1008AB007FD11209081208708F0DD201120A37126C
:0408BB000A52AF0D21
:0108BF002216
:10092B00E4FD7F6B1209FF7D077F191209FF7D061E
:10093B007F1A1209FF7D187F1B1209FF7D017F1C97
:03094B000209FF9F
:0208E4008F0A79
:1008E6001208998F0BE50A04FF120899AD07AF0BA2
:1008F600EF3395E0EFFEED3395E0FCE42DFFEE3CA3
:01090600FEF2
:0109070022CD
:030000000206A84D
:0C06A800787FE4F6D8FD7581340206EF7F
:1002EE00BB010689828A83E0225002E722BBFE020E
:0902FE00E32289828A83E4932241
:10030700BB010CE58229F582E5833AF583E02250AB
:1003170006E92582F8E622BBFE06E92582F8E222F5
:0D032700E58229F582E5833AF583E493220F
:10033400BB010689828A83F0225002F722BBFE01A8
:02034400F322A2
:10034600BC000BBE0029EF8DF084FFADF022E4CC9B
:10035600F875F008EF2FFFEE33FEEC33FCEE9DEC64
:10036600984005FCEE9DFE0FD5F0E9E4CEFD22EDAA
:10037600F8F5F0EE8420D21CFEADF075F008EF2FF4
:10038600FFED33FD4007985006D5F0F222C398FDE5
:050396000FD5F0EA2282
:10039B00C2D5EC30E709B2D5E4C39DFDE49CFCEE7D
:1003AB0030E715B2D5E4C39FFFE49EFE120346C3AC
:1003BB00E49DFDE49CFC800312034630D507C3E4A7
:0603CB009FFFE49EFE22EC
:1006B400020014E493A3F8E493A34003F68001F248
:1006C40008DFF48029E493A3F85407240CC8C33347
:1006D400C4540F4420C8834004F456800146F6DF16
:1006E400E4800B0102040810204080900003E47EA3
:1006F400019360BCA3FF543F30E509541FFEE4930B
:10070400A360010ECF54C025E060A840B8E493A3D1
:10071400FAE493A3F8E493A3C8C582C8CAC583CAFC
:10072400F0A3C8C582C8CAC583CADFE9DEE780BEB4
:0100130000EC
:00000001FF
