:100C9700022B0064022200FF0224009C02270001AD
:0C0CA700012D0A012E320126010130004F
:1000060043890185238C85258AD2A9D2AFD28C2239
:100CF900E4F52AAC2BAD2C7E277F1012048DAC278E
:070D0900AD2812048D8F29B3
:100D100043891085238D85258BD2ABD2AFD28E220D
:100B2B007FF47E01120DD3120AC0120D47120D8EE7
:100B3B007F967E00120DD37F3B120E2EE4FB7D10B1
:100B4B00120DB17F3D120E2EE4FB7D38120DB17FDD
:100B5B003F120E2EE4FB7D60120DB17F43120E2E61
:100B6B007B027D10120DB17F45120E2E7B027D385C
:100B7B00120DB17F47120E2E7B027D60120DB17FDD
:080B8B00F47E01120DD380AFCE
:10091800C200E4F52AAC2BAD2C7E277F1012048D83
:10092800AC27AD2812048D8F297FF47E01120DD3D8
:10093800120AC0120D47120D10E52975F01484F53E
:100948002F2405F531E52975F00384FFE52FD39FA2
:100958004002C200E52975F00784FFE52FC39F50C8
:1009680002D20030000C7405252FF52F74052531AF
:10097800F53120000C74FB252FF52F74FB2531F57C
:1009880031AF2F7E00E4FB7D10120E4BAF317E009D
:10099800E4FB7D40120E4B7FF47E01120DD380A53F
:10031500D201E4F51EF51F7FF47E01120DD3120AFA
:10032500C0120D47120D8E7F967E00120DD3120C52
:10033500F9E529C313F52FE52975F01484F531AFD7
:100345002F7E00E4FB7D10120E4BAF317E00E4FBE7
:100355007D40120E4B051FE51F7002051EAE1EFFE8
:100365007C007D0512048DED4C70587F47120E2ED2
:100375007C007D401204E2C3EF94FBEE6480947F21
:100385005008E52F940A4002152FD3EF94FDEE6433
:1003950080947F4009E531D3940F40021531E5295A
:1003A50075F00384FDE52FD39D4002C201E5297553
:1003B500F00784FDE52FC39D5002D2017B027D38F5
:1003C500120E4BD3E51F9432E51E94004087E4F5E9
:1003D5001EF51F30011FE52975F00384FFE52FC3C6
:1003E5009F50067405252FF52FE531C39F500674E0
:1003F500052531F53120011FE52975F00784FFE555
:100405002FD39F400674FB252FF52FE531D39F4051
:100415000674FB2531F531AF2F7E00E4FB7D10120C
:100425000E4BAF317E00E4FB7D40120E4B02035AAA
:1001C000D202E4F561F5627FF47E01120DD3120ACA
:1001D000C0120D47120D8E7F967E00120DD3120CA9
:1001E000F9E52975F00A84F52F2405F531AF2F7E46
:1001F00000E4FB7D10120E4BAF317E00E4FB7D402E
:10020000120E4B0562E56270020561AE61FF7C0073
:100210007D0312048DED4C60030202A67F47120E8F
:100220002E8E638F64D3E5649407E56364809480C5
:100230004015E52FD3940A400EE52630E002152F35
:10024000E52630E1021531C3E56494F9E563648085
:10025000947F5014E531940F400EE52630E00215EE
:1002600031E52630E102152FE52FD3952E4002C24D
:1002700002E52FC3952D5002D202AF267E007B02ED
:100280007D10120E4B7B027D38AF64AE63120E4BB5
:10029000AF2F7E00E4FB7D10120E4BAF317E00E4E9
:1002A000FB7D40120E4BD3E5629405E5619400405E
:1002B00044E4F561F562300211E52F952E500205F8
:1002C0002FE531C3952E50020531200212E52FD3C0
:1002D000952D4002152FE531D3952D40021531AFF4
:1002E0002F7E00E4FB7D10120E4BAF317E00E4FB4D
:1002F0007D40120E4B30A1067526010202037526C1
:10030000027F647E00120DD37526087F647E001282
:050310000DD302020301
:100BDB00E4F56A120F04120D10120F328F69120C0A
:100BEB005B8F6AE56AC4540F240DF8E6F509E56AD4
:100BFB00540F240DF8E6F50A750B40E569540F24E4
:100C0B000DF8E6F50C120B93E54230E3CC120EF126
:020C1B0080C790
:10001E00753605120C1D8F35E53530E008E53625B1
:10002E002EF52E8021E53530E109C3740F9536F596
:10003E00368013E53530E209C3E52E9536F52E8070
:10004E0005E53520E33DE52E75F06484F535600752
:10005E00240DF8E6FF80027F008F09750A40E52E19
:10006E0075F06484E5F075F00A84240DF8E6F50B5E
:10007E00E52E75F00A84740D25F0F8E6F50C120BDA
:10008E009380907FF47E01120DD3120D8E7F967E9B
:10009E0000120DD3120CF9120F04E52975F00A8423
:1000AE00F52F2405F5310535E53575F00384E5F0BA
:1000BE0070537F47120E2ED3EF9407EE6480948018
:1000CE004015E52FD3952D400EE52630E002152F75
:1000DE00E52630E1021531C3EF94F9EE6480947F8A
:1000EE005023E52D2405FFE433FED3E5319FEE6466
:1000FE0080F8748098400EE52630E0021531E52632
:10010E0030E102152FE535D394054014E4F535E5BD
:10011E002F952E5002052FE531C3952E5002053135
:10012E00120C5B8F37E53724F0602724D8601E242D
:10013E00EE601524F0602024C2602624B6601D24D3
:10014E00CA7021752101801C7521028017E4F521EA
:10015E008012752104800D7521088008E4F5308029
:10016E000375300130A109E5376019852126801706
:10017E007526027F647E00120DD37526087F647E7D
:10018E0000120DD3853026E4F509F50AE537C4547F
:10019E000F240DF8E6F50BE537540F240DF8E6F5B0
:1001AE000C120B93E54320E4030200B4120EF1028D
:0201BE0000B48B
:030F2F0002001E9F
:03001B000209A82F
:1009A800C0E0C0F0C083C082C0D075D000C000C015
:1009B80001C002C003C004C005C006C00785238D5E
:1009C80085258B052AE52AD39529400B752A00052C
:1009D80043E54370020542E52AC3952F5013E526E7
:1009E80054096003120016E52630E108120F1B8037
:1009F80003120F25E52AC395315013E526540560E7
:100A080003120F16E52630E108120F208003120F9B
:100A18002AD007D006D005D004D003D002D001D008
:0C0A280000D0D0D082D083D0F0D0E032DB
:100CB300010800110D3F065B4F666D7D077F6F775F
:060CC3007C395E797176B8
:0B0EE600EF1FAC0670011E4C70F622DE
:100DD300E4FDFCC3ED9FEC9E5015E4FBFA0BBB0056
:0F0DE300010AEB64794A70F50DBD00010C80E444
:010DF20022DE
:100E6600000000000000000000000000000000007C
:090E760000000000000000002251
:080EFB007F017E02DEFEDFFA3A
:010F030022CB
:100B9300E4F9E914601014601714601E2403702232
:100BA300C2A0D2A18004D2A0C2A1D2A2D2A3801299
:100BB300D2A0D2A1C2A2D2A38008D2A0D2A1D2A293
:100BC300C2A3740929F8E6F5807F017E00120DD3D4
:070BD300E4F58009B904BB41
:010BDA0022F8
:100C1D00E4FD3094093095063096032097217FE846
:100C2D007E03120EE62094047D0180132095047D31
:100C3D0002800C2096047D0480052097027D0830EB
:0D0C4D0094FD3095FA3096F73097F4AF051E
:010C5A002277
:10053E00E7A791000000FF0000CC22009151FE724F
:10054E00921210000101FF02020204040400FF00D7
:10055E00010204E68A80000848C8487F4848C8005F
:10056E002848FF88080800206021120C0C13204038
:10057E0040007F80410100E010080810E000000FED
:10058E00102020100F0000001010F80000000000D6
:10059E0020203F202000007008080808F0000030DE
:1005AE002824222130000030080808887000001826
:1005BE00202121221C000000804030F8000000069F
:1005CE000524243F242400F8888888080800001990
:1005DE00202020110E0000E0108888900000000FEF
:1005EE00112020201F00001808088868180000003D
:1005FE00003E010000000070880808887000001C92
:10060E00222121221C0000F008080810E000000141
:10061E00122222110F000000000000000000000155
:10062E0001010101010000000000E00000000001D6
:06063E0001010F010101A2
:0D0DF30033FE120E00E5682404FFE433FE19
:100E0000C2B2D2A5C2A6C2A700008F800000D2A79E
:010E100022BF
:0C0E1100F582E43583F583E493FF7E0056
:100E1D00C2B2D2A5D2A6C2A700008F800000D2A771
:010E2D0022A2
:100AC000C2B3E4FF0FBF64FCC2B2D2B37FE27E00C8
:100AD000120E00E4FF0FBF64FC7FA07E00120E0028
:100AE0007FC8120E007FA6120E007FA4120E007F98
:100AF000A2120E007FF8120E007F01120E007F81FD
:100B0000120E007F23120E007F25120E007F2F127F
:100B10000E00E4FF0FBF64FC7F407E00120E007FDA
:0A0B2000AF120E00E4FF0FBF64FCEB
:010B2A0022A8
:100D4700E4FDED24B0120DFC7F107E00120E00E4CE
:100D5700FF120E00FCE4FFFE120E1D0CBC80F60D08
:030D6700BD08DFE5
:010D6A002266
:0607D5007B00AD07AC063D
:1007DB008B5C8A5D895E8C5F8D60C3E55F64809402
:1007EB0080500FC3E49560F560E4955FF55F743A54
:1007FB008008AB5CAA5DA95E743B12047BAE5FAF55
:10080B00607C007D641204E2EF2430FFAB5C055E7C
:10081B00E55E7002055DF9AA5DEF12047BAE5FAF7A
:10082B00607C007D641204E28C5F8D60AE5FAF6014
:10083B007C007D0A1204E2EF2430FFAB5C055EE521
:10084B005E7002055DF9AA5DEF12047BAE5FAF60CF
:10085B007C007D0A1204E28C5F8D60E5602430FF22
:10086B00AB5C055EE55E7002055DF9AA5DEF020407
:01087B007B01
:040DB1008D568B5779
:100DB5007C007D401204E27A0079581207D57B0049
:0E0DC5007A007958754C04AD57AF5602087C81
:040E4B008D4F8B50EC
:100E4F007A0079511207D57B007A007951754C04DD
:070E5F00AD50AF4F02087C0B
:040712008F658D66FC
:10071600E566D3940740037F0022E565D3948040C5
:10072600037F002274B02566F566FF7E00120E0078
:1007360012043570030207D2AF667E00120E00E582
:1007460065C4540FF567E565540FF568E567241031
:10075600FFEE120DF3E4FD120435FFED75F023A450
:10076600243EF582E43405F583E4936F704E9000E1
:100776000112044EFFED75F023A4243FF582E43404
:1007860005F583E4936F7034FCEC64107010E56635
:100796002401120DFCE5672410FFE4120DF3ED753C
:1007A600F023A42441F582E43405F583E5822C1276
:1007B6000E110CBC20D374102565F5650DED643261
:0E07C6007095740229F9E43AFA0207367F01B1
:0107D4002202
:04087C008D48AC07F0
:10088000E548D3940740037F0022ECD394804003D3
:100890007F002274B02548F548FF7E00120E00AF9D
:1008A0004C154CEF606FAF487E00120E00ECC45444
:1008B0000FF54DEC540FF54EE54D2410FFEE33FED1
:1008C000120E00AF4E7E00120E00E4FDED640870C3
:1008D00015E5482401120DFCE54D2410120DFCAF66
:1008E0004E7E00120E00C37403954CFFE494008FFB
:1008F00082F58312044E75F010A42484F582E5F08D
:100900003402F583E5822D120E110DBD10BE740860
:070910002CFC02089F7F018F
:0109170022BD
:0F0EB000D2B5D2B4120E66C2B5120E66C2B4220B
:0C0EDA00C2B5D2B4120E66D2B5020E668C
:0E0EBF00A20392B5D2B4120E66C2B4020E6641
:0D0ECD00D2B4120E66A2B5C2B4120E662297
:020D6B008F3CBB
:100D6D00E4F53DE53C25E0F53C92B5D2B4120E66B6
:100D7D00C2B4120E66053DE53DC3940840E5020E72
:010D8D00CD98
:100CD000E4F53DD2B5F53CE53D25E0F53DD2B41255
:100CE0000E66A2B5E433423DC2B4120E66053CE581
:080CF0003CC3940840E1AF3D54
:010CF80022D9
:100E7F008F388D39120EB07FD0120D6BAF38120D27
:090E8F006BAF39120D6B020EDA93
:020D20008F3A08
:100D2200120EB07FD0120D6BAF3A120D6B120EB0D5
:100D32007FD1120D6B120CD08F3BD203120EBF1259
:040D42000EDAAF3BDB
:010D4600228A
:100D8E00E4FD7F6B120E7F7D077F19120E7F7D06AD
:100D9E007F1A120E7F7D187F1B120E7F7D017F1C26
:030DAE00020E7FB3
:020E2E008F38FB
:100E3000120D208F39E53804FF120D20AD077C001C
:0A0E4000AF39EFFEE42DFFEC3EFE9B
:010E4A002285
:05001600D292C293220A
:050F1600D290C29122FF
:050F1B00C292D29322F6
:050F2000C290D29122F5
:050F2500C292C29322FC
:050F2A00C290C29122FB
:060CC9000144000145009A
:090F0400D288D2A8D2AFD2B222E9
:100E9800E4F53430B20F0534120EFBE534C394FA8E
:070EA80040F1AF3422AF342A
:010EAF002220
:100C5B00AF41AE40AD3FAC3E7818120518AB07AFB5
:100C6B0041AE40AD3FAC3E7810120518E4AA07AF79
:100C7B0041AE40AD3FAC3E7808120518AE41EAF4E8
:0B0C8B00B50306EEF4B50701227F0060
:010C9600223B
:030F3200AF4422A7
:0A0EF100E4F541F540F53FF53E221F
:080F0D007F037E01DEFEDFFA26
:010F150022B9
:03000300020644AE
:10064400C0E0C0F0C083C082C0D075D000C000C07C
:0D06540001C002C003C004C005C006C007FD
:10066100E4FBF532F53330B2FD75420075430012FB
:100671000E98AB07EBC394FA507CEBC394C8400DC2
:10068100EB94FA50087532017544018032EBC39442
:100691000A400AEB943250057533008022EBC39473
:1006A10032400AEB946450057533018012EBC39418
:1006B10064400CEB94C8500775460105448037E54A
:1006C10032640170A1AF41AE40AD3FAC3E78011242
:1006D100052B8F418E408D3F8C3EE4FCFDFEE541B4
:1006E1002533F541EE3540F540ED353FF53FEC352D
:0606F1003EF53E02066723
:1006F700D007D006D005D004D003D002D001D00057
:0B070700D0D0D082D083D0F0D0E03200
:03000000020A34BD
:0C0A3400787FE4F6D8FD75816A020A7B29
:10043500BB010689828A83E0225002E722BBFE02C5
:09044500E32289828A83E49322F8
:10044E00BB010CE58229F582E5833AF583E0225063
:10045E0006E92582F8E622BBFE06E92582F8E222AD
:0D046E00E58229F582E5833AF583E49322C7
:10047B00BB010689828A83F0225002F722BBFE0160
:02048B00F3225A
:10048D00BC000BBE0029EF8DF084FFADF022E4CC53
:10049D00F875F008EF2FFFEE33FEEC33FCEE9DEC1C
:1004AD00984005FCEE9DFE0FD5F0E9E4CEFD22ED62
:1004BD00F8F5F0EE8420D21CFEADF075F008EF2FAC
:1004CD00FFED33FD4007985006D5F0F222C398FD9D
:0504DD000FD5F0EA223A
:1004E200C2D5EC30E709B2D5E4C39DFDE49CFCEE35
:1004F20030E715B2D5E4C39FFFE49EFE12048DC31C
:10050200E49DFDE49CFC800312048D30D507C3E416
:060512009FFFE49EFE22A3
:10051800E8600FECC313FCED13FDEE13FEEF13FFC1
:03052800D8F122E5
:10052B00E8600FEFC333FFEE33FEED33FDEC33FC2E
:03053B00D8F122D2
:100A4000020F2FE493A3F8E493A34003F68001F28E
:100A500008DFF48029E493A3F85407240CC8C333B7
:100A6000C4540F4420C8834004F456800146F6DF86
:100A7000E4800B0102040810204080900C97E47E73
:100A8000019360BCA3FF543F30E509541FFEE4937B
:100A9000A360010ECF54C025E060A840B8E493A342
:100AA000FAE493A3F8E493A3C8C582C8CAC583CA6D
:100AB000F0A3C8C582C8CAC583CADFE9DEE780BE25
:010CCF000024
:00000001FF
